:020000040800F2
:100000000000022001840008599500085B95000853
:100010005D9500085F9500086195000800000000EC
:1000200000000000000000000000000063950008D0
:1000300065950008000000006795000869950008B4
:10004000518400085184000851840008518400083C
:10005000518400085184000851840008518400082C
:10006000518400085184000851840008518400081C
:10007000518400085184000851840008518400080C
:1000800051840008518400085184000851840008FC
:1000900051840008518400085184000851840008EC
:1000A00051840008518400085184000851840008DC
:1000B00051840008518400085184000851840008CC
:1000C00051840008518400085184000851840008BC
:1000D00051840008518400086D950008B995000806
:1000E000518400085184000851840008518400089C
:1000F000518400085184000851840008518400088C
:1001000051840008518400080596000851840008B5
:10011000518400085184000851840008A596000805
:10012000518400085184000851840008518400085B
:100130005184000800000000000000005184000805
:10014000518400085184000851840008518400083B
:10015000518400085184000851840008518400082B
:10016000518400085184000851840008518400081B
:1001700051840008518400085184000800000000E8
:100180000000000051840008000000000000000092
:1001900051840008000000000000000051840008A5
:1001A0000000000000000000000000005184000872
:1001B00051840008518400085184000851840008CB
:0401C000518400085E
:1080000010B5054C237833B9044B13B10448AFF3D2
:1080100000800123237010BD8800002000000000B4
:1080200060E4000808B5034B1BB103490348AFF3F4
:10803000008008BD000000008C00002060E4000803
:10804000034613F8012B002AFBD1181A0138704798
:1080500001F0FF01102A2BDB10F0070F08D010F8F9
:10806000013B013A8B422DD010F0070F42B3F6D1FD
:10807000F0B441EA012141EA014122F007047FF016
:1080800000070023F0E80256083C85EA010586EA6D
:10809000010685FA47F5A3FA87F586FA47F6A5FAA9
:1080A00087F68EB9EED1F0BC01F0FF0102F00702B5
:1080B00032B110F8013B013A83EA010313B1F8D160
:1080C0000020704701387047002D06BF3546033841
:1080D000073815F0010F07D1013015F4807F02BF7A
:1080E000013015F4C03F0130F0BC0138704700BFCB
:1080F00053B94AB9002908BF00281CBF4FF0FF310F
:108100004FF0FF3000F07AB9ADF1080C6DE904CE04
:1081100000F006F8DDF804E0DDE9022304B0704762
:108120002DE9F0478C460D460446089E002B51D1A0
:108130008A4217466DD9B2FA82FEBEF1000F0BD00B
:10814000CEF1200C01FA0EF520FA0CFC02FA0EF723
:108150004CEA050C00FA0EF44FEA174A250CBCFB5A
:10816000FAF81FFA87F90AFB18CC45EA0C4508FB18
:1081700009F3AB420AD9ED1908F1FF3280F02381EF
:10818000AB4240F22081A8F102083D44ED1AA4B2AE
:10819000B5FBFAF00AFB105544EA054400FB09F967
:1081A000A14509D9E41900F1FF3380F00A81A14506
:1081B00040F2078102383C44A4EB090440EA08403D
:1081C0000021002E61D024FA0EF400233460736085
:1081D000BDE8F0878B4207D9002E54D0002186E8F5
:1081E00021000846BDE8F087B3FA83F1002940F08A
:1081F0008E80AB4202D3824200F2FA80841A65EB91
:1082000003050120AC46002E3FD086E81010BDE8E3
:10821000F08712B90127B7FBF2F7B7FA87FEBEF174
:10822000000F34D1EB1B3A0C1FFA87FC0121B3FB82
:10823000F2F8250C02FB183345EA03450CFB08F362
:10824000AB4207D9ED1908F1FF3002D2AB4200F280
:10825000D1808046ED1AA3B2B5FBF2F002FB1055B7
:1082600043EA05440CFB00FCA44507D9E41900F1DE
:10827000FF3302D2A44500F2B8801846A4EB0C04E8
:1082800040EA08409DE731463046BDE8F087CEF130
:10829000200405FA0EF307FA0EF720FA04F83A0C58
:1082A00025FA04F448EA0308B4FBF2F14FEA184552
:1082B00002FB11441FFA87FC45EA044501FB0CF35D
:1082C000AB4200FA0EF409D9ED1901F1FF3080F04C
:1082D0008A80AB4240F2878002393D44EB1A1FFA94
:1082E00088F5B3FBF2F002FB103345EA034500FBCF
:1082F0000CF3AB4207D9ED1900F1FF386FD2AB4256
:108300006DD902383D44EB1A40EA01418FE7C1F1D3
:10831000200722FA07F88B4005FA01F448EA030324
:1083200020FA07FE4FEA134CFD404EEA040EB5FB5F
:10833000FCF94FEA1E440CFB19551FFA83F844EA76
:10834000054509FB08F4AC4202FA01F200FA01FA11
:1083500008D9ED1809F1FF3043D2AC4241D9A9F157
:1083600002091D442D1B1FFA8EFEB5FBFCF00CFB11
:1083700010554EEA054400FB08F8A04507D9E4185B
:1083800000F1FF3529D2A04527D902381C4440EA24
:108390000940A4EB0804A0FB02894C45C6464D46A3
:1083A00015D312D056B1BAEB0E0364EB050404FAF0
:1083B00007F7CB401F43CC40376074600021BDE815
:1083C000F0871846F8E69046E0E6C245EAD2B8EBF8
:1083D000020E69EB03050138E4E72846D7E740467B
:1083E00091E78146BEE7014678E702383C4445E71D
:1083F000084608E7A8F102083D442BE7704700BF94
:10840000DFF834D0002103E00C4B5B5843500431BB
:108410000B480C4B42189A42F6D30B4A02E0002359
:1084200042F8043B094B9A42F9D301F043F904F0B6
:10843000F7FF00F0C5F9704700000220280D010881
:10844000000000208800002088000020D860002064
:10845000FEE770B50E4615460C46A31B9D4201DC97
:10846000284670BDAFF3008004F8010BF5E770B546
:108470000E4615460C46A31B9D4201DC284670BDE6
:1084800014F8010BAFF30080F5E7000008B50A4BC4
:108490001968024609B90949196018686946024411
:1084A0008A4206D904F0B6FF0C2303604FF0FF3078
:1084B00008BD1A6008BD00BFA4000020D8600020DD
:1084C0004FF0FF3070474FF400534B60002070476F
:1084D0000120704700207047054B1A6B02431A6356
:1084E0001B6B82B018400190019B02B0704700BF27
:1084F00000380240054B1A6C02431A641B6C82B0B0
:1085000018400190019B02B0704700BF0038024044
:10851000054B5A6C02435A645B6C82B01840019060
:10852000019B02B0704700BF0038024030B54FF0E9
:10853000007393FAA3F301F00072B3FA83F322FA03
:1085400003F30C304FF0F87450F8232094FAA4F59C
:10855000B5FA85F52140E940072505FA01F122EA3F
:10856000010194FAA4F440F8231030BD00F0070094
:10857000C0F10702031D042A28BF0422062B4FF076
:10858000010303FA02F303F1FF338CBF0338002029
:10859000194001FA00F0704710B586B0142200218E
:1085A00001A804F07BFF2020FFF7A4FF144B154C1B
:1085B000D8680021C0F30220FFF7D8FF124B00015A
:1085C0004FF40002C0B283F837035A600023ADF8BD
:1085D0000430029301A940F271232046039302F074
:1085E000A9FA236823F080032360636823F07003F3
:1085F0006360A36823F08003A36006B010BD00BFD2
:1086000000ED00E00014004000E100E01FB504466A
:108610004000002300F00E0058308DF80D30490066
:108620004FF47A738DF80C008DF80E10009301460C
:1086300002230DF10D02074801F040FD04F0010492
:10864000054B28B1E4B21A5D01321A5504B010BDD1
:108650001855FBE7B4000020B401002008B505461A
:10866000164E04F08BFA012003F0FAFA4FF0007373
:10867000134AB3614FF0807393611248B36103F002
:108680004BF915B1284603F047F90E480E4C03F09C
:1086900043F9002323602368B3F57A7FFBD30025D9
:1086A0000A4B28461D6003F0DBFA4FF48063B36188
:1086B00025602368B3F5FA6FFBD3FEE700040240A0
:1086C000000802406908010818020020100200207A
:1086D00010B50A4CE36823F00103E360236823F03C
:1086E00001032360FFF758FFE36843F00103E360F1
:1086F000236843F00103236010BD00BF0014004055
:1087000030B595B03422002107A804F0C7FE00213F
:10871000142202A804F0C2FE00251B4B00951A6C1F
:1087200042F080521A641B6C03F080530093009B4C
:10873000164B01951A6842F440421A601B680E9568
:1087400003F440430193019B01230A9310230B93ED
:1087500008230F93A0230224109307A80723129342
:1087600007940D941194139401F05EFE0F2302936D
:1087700005214FF4A05302A8039404950593069392
:1087800001F06AFD15B030BD0038024000700040B5
:1087900010B586B01422094C002101A804F07EFE19
:1087A0004FF48063019301A901232046029301F055
:1087B00025FA4FF08063A36106B010BD00040240AB
:1087C0002DE9F04F9DB000F0BFFFFFF799FF03F0D8
:1087D0006FF9012003F044FAC82000F0E1FF002007
:1087E00003F03EFA1422002115A804F057FE0024DD
:1087F000B64B03941A6BB648DFF8149342F00402A8
:108800001A631A6B02F004020392039A04941A6B1F
:1088100042F080021A631A6B02F080020492049AFA
:1088200005941A6B42F001021A631A6B02F00102FE
:108830000592059A06941A6B42F002021A631A6BAB
:1088400002F002020692069A07941A6B42F008029E
:108850001A631B6B03F008030793224642F2D01100
:10886000079B01F0A5FA22464FF49851994801F070
:108870009FFA22464FF40041974801F099FA0126E9
:1088800042F2D01315A9924815931696179418948E
:1088900001F0B4F9042315A98E4815931694179482
:1088A00001F0ACF94FF4985315A98A481593169620
:1088B0001794189401F0A2F94FF4C05315934FF098
:1088C000020A032315A94FF00A0B83481893CDF829
:1088D00058A01794CDF864B001F090F94FF400431C
:1088E00015A97D48159316961794189401F086F9EA
:1088F0000423159315A9794B79481693179401F021
:108900007DF9214614220FA8089409940A9404F0D2
:10891000C5FD214610220BA804F0C0FD18222146F7
:1089200015A804F0BBFD4FF48070FFF7F1FD504631
:10893000FFF7D2FD032315A96648169315961994DF
:1089400001F0DCFF08A94846089409940A9401F054
:108950006DFF4FF480730FA94846139301930F9452
:1089600010941194129401F07BFFD9F808205D480F
:1089700042F48062C9F80820D9F8042022F02002CD
:10898000C9F804200BA90B940C944FF4407501F026
:1089900023FF95FAA5F24FF40077B2FA82F227FA94
:1089A00002F25148DFF86C8150F8221021F01F01CB
:1089B00041F0080140F8221048464C49FFF7B6FD47
:1089C000214614220FA80B940C940D9404F066FD1C
:1089D0001822214615A804F061FD3846FFF798FDDE
:1089E0005046FFF779FD032315A93A481693CDF8B1
:1089F00054A0199401F082FF0BA940460B940C94EB
:108A00000D9401F013FF019B13930FA940460F949F
:108A100010941194129401F023FFD8F8083043F415
:108A20008063C8F80830D8F8043023F02003C8F871
:108A3000043095FAA5F5B5FA85F527FA05F52C4A1F
:108A40002C4952F8253023F01F0343F0090342F864
:108A500025304046FFF76AFD102221460FA804F09A
:108A60001DFD1822214615A804F018FD4FF00050F6
:108A7000FFF740FD3046FFF72FFD3023159315A972
:108A8000032315481693199401F038FF38230FAAD1
:108A900019491A480F931094129401F005FF0FAA78
:108AA00017491648174D01F0FFFE1748174B846011
:108AB00080E828004FF480450561C460446184610A
:108AC000C461046201F056FA26E000BF003802409B
:108AD00000080240000402400000024000001110A3
:108AE000000C0240002301402C20014008008003BC
:108AF0002C2101400900B003010010020074004065
:108B000012004315A08601006001002000540040BF
:108B10000020014000210140DFF82CE3BD48BE4B9E
:108B2000056180E808408460C46044618461C46178
:108B3000046201F01FFAB948B94B87614FF482759E
:108B400080E82800C0F82CB08460C46004614461EF
:108B5000C46104624462846201F000FEB148B24B19
:108B6000876180E82800C0F82CB08460C46004618C
:108B70004461C46104624462846201F0EFFD142226
:108B8000214615A804F08AFC0820FFF7B3FCA74B88
:108B9000A74DD8680321C0F30220FFF7E7FCA54BDF
:108BA0000001C0B24FF4802283F8320315A95A6045
:108BB0002846A14A01931792ADF854401694189490
:108BC00001F0B8FF2A6822F080022A60AA6822F425
:108BD000804222F00702AA606A6822F070026A608E
:108BE000AA6822F08002AA60FFF7D6FC1C22214668
:108BF00015A804F053FC182221460FA804F04EFCDF
:108C00001020FFF785FC3046FFF766FC07F1804730
:108C1000032307F587374FF4C06211930FA9072389
:108C200086480F924FF00C0BCDF840A0139614938A
:108C3000129401F063FE4FF4E13315A93846159301
:108C4000CDF864B01694179418941A941B9401F0FC
:108C5000D5FF3A6922F490423A617A6922F02A02F9
:108C60007A61FA6842F40052FA6021461C2215A883
:108C700004F014FC182221460FA804F00FFC4FF456
:108C80000030FFF737FC3046FFF726FC0323119333
:108C90000FA907236948CDF83CB0CDF840A0139642
:108CA0001493129401F02AFE604BD8685146C0F329
:108CB0000220FFF75BFC019B0001A7F54C47402217
:108CC000C0B283F8260315A95A60384601934FF4C1
:108CD000E1331593CDF864B01694179418941A9450
:108CE0001B9401F08BFF3A6922F490423A617A6951
:108CF00022F02A027A61FA6842F40052FA602146B0
:108D00001C2215A804F0CAFB182221460FA804F063
:108D1000C5FB4FF48020FFF7EDFB0420FFF7DCFBE1
:108D200003234FF4406211930FA9072344480F9285
:108D3000CDF840A013961493129401F0DFFD3B4B45
:108D4000D8685146C0F30220FFF710FCDFF8FCA002
:108D5000019B00018022C0B283F8270315A95A6045
:108D600050464FF4E1331593CDF864B01694179440
:108D700018941A941B9401F041FFDAF81030DFF8D0
:108D8000D0B023F49043CAF81030DAF8143023F04E
:108D90002A03CAF81430DAF80C3043F40053CAF846
:108DA0000C30FFF7F5FC304602F05AFFC82000F007
:108DB000F7FC204602F054FF204602F001F802F0D2
:108DC00037FC204602F0DAF802F0F6F8642000F0F2
:108DD000E7FC2B6833432B60DBF800303343CBF8E0
:108DE0000030EB683343EB60DBF80C30154D334358
:108DF000CBF80C30DAF80C3043F02003CAF80C3012
:108E0000FB6843F02003FB60D9F808303343C9F80E
:108E100008301FE0B4000020005C0040B8010020D2
:108E200000300140080100200038004000ED00E063
:108E3000000C004000E100E080380100000002402A
:108E400000080240C9600020A086010000480040E0
:108E500000140040D8F808303343C8F80830DFF871
:108E60003C82297898F8003063F07F0388F800305E
:108E7000794B20461C70FFF7C9FB30466978774E66
:108E8000FFF7C4FB764B4FF400429A6103F5806311
:108E90001B6913F0040340F00381DAF80C20714CD5
:108EA000714D22F02002CAF80C20FA6822F020024C
:108EB000FA60DBF80C206D4F22F00102CBF80C2099
:108EC00023602268BA4202D96948FFF7C7FB2BB377
:108ED00001233269674952075EBF726982F480726A
:108EE00072610A6890060CD54A687069D2B280F443
:108EF00080707061A1F58061C1F804244A6000228D
:108F000022605D4A11688906DBD55268696981F47F
:108F1000005169615749D2B24A60D2E7216841F2F3
:108F20008832914284BF4FF40052AA6132695107DE
:108F3000CFD5226841F288339A42C9D94E4A4F4868
:108F40004FF00053AB61D36843F02003D360D2F8F5
:108F50000C3443F02003C2F80C3402F0DDFC484826
:108F600002F0DAFC464802F01DFD0023236023686E
:108F7000B3F57A6FFBD36B69424883F400536B619E
:108F800002F0CAFC3F4802F00DFD00232360236875
:108F9000B3F5C87FFBD36B693B4883F400536B6127
:108FA00002F0BAFC384802F0FDFC0023236023687D
:108FB000B3F5C87FFBD36B69344883F400536B610E
:108FC00002F0AAFC314802F0EDFC00232360236884
:108FD000B3F5C87FFBD36B692D4883F400536B61F5
:108FE00002F09AFC2A4802F0DDFC0023236023688B
:108FF000B3F5C87FFBD36B69264883F400536B61DC
:1090000002F08AFC234802F0CDFC00232360236891
:10901000B3F5C87FFBD36B691F4883F400536B61C2
:1090200002F07AFC1C4802F0BDFC00232360236898
:10903000B3F57A7FFBD36B690E4A83F400536B61FF
:10904000D36823F02003D360A2F58062D36823F0B5
:109050002003D3603CE700BFBA6000200004024058
:10906000000002401802002000080240A086010013
:1090700078E40008004800400044004089E400080B
:109080009DE40008A1E40008ADE40008B9E400088C
:10909000C5E40008D0E40008D6E40008C76000205A
:1090A000DFF8B092964F02F0BDFC29780C0605D58A
:1090B00001F07F0100202970FFF7A8FA69780806FF
:1090C00005D501F07F0101206970FFF79FFA98F93B
:1090D0000030002B80F2858003F08CFD97F9003082
:1090E000002B01DAFFF7F4FA3B78864A8649874C71
:1090F000DFF864A2DFF864E2DFF84CB2608803F0C6
:109100007F033B70137803F001031370804B0193CE
:109110001A7802F07F021A7098F8002002F001021B
:1091200088F800200A88C2F308020A8079490A7880
:1091300002F07F020A702288BAF80210C2F30E020F
:109140002280BAF80020C2F30E02AAF800209EF88E
:10915000002002F07F028EF800209BF80020DFF84C
:1091600000E202F07F02C1F30E018EF80020C0F38E
:109170000E008BF800200122AAF80210608003F094
:109180009BF90022BAF80010208803F095F9019BA2
:109190001B78002B60D09BF80030002B5CD00120A6
:1091A00002F05EFD322000F0FBFA002002F058FDD4
:1091B0003B7813F0010F0CBF082100214FF0FF3066
:1091C00003F05CFD4FF00073B361534A99F800302F
:1091D00012781B0102F0030203F0300313434F4ADD
:1091E00013704F4A1378190609D503F07F031370E3
:1091F0006422C3EB033393FBF2F34A4A136099F8FA
:10920000004014F0010408D0474803F0F8FB04467E
:10921000464803F0F4FB0444E4B299F800309A079E
:1092200009D5434803F0EBFB8246424803F0E7FBD5
:1092300050440444E4B2DFF82CA124B100208AF8A1
:10924000000003F0F9FB9AF8003003BB14238AF8FE
:10925000003003F0C7FD26E74FF40073B36103F05D
:1092600097FB012002F0FCFC142000F099FA00208A
:1092700002F0F6FC282000F093FA012002F0F0FC46
:10928000142000F08DFA002002F0EAFC9DE72A4A43
:109290001378E3B129490B6801330B6041F2707117
:1092A0008B4201D9264810E60023137002F066FABB
:1092B00002F0B2FA02F0E2FA224B1B783BB1224BE9
:1092C0001B78DB0742BF736983F4007373611F4B24
:1092D0001A78002A3FF4E7AE002029781870FFF7CB
:1092E00095F969780120FFF791F9194B1B7813B9AB
:1092F000012003F0A1FB736983F480737361D2E6EC
:10930000C8600020C6600020CE600020C26000203F
:10931000D1600020B8600020DD560020C05400203D
:10932000CB600020A0600020E056002008590020FB
:10933000445C00206C5E002024020020100200200B
:10934000E2E400089A600020C060002014020020BF
:10935000C1540020DC560020B4600020B960002019
:10936000B26000202502002082B00C4B0021009149
:109370005A6C42F480425A645A6C02F48042009261
:10938000009A01911A6C42F080521A641B6C03F02F
:1093900080530193019B02B0704700BF0038024028
:1093A0002DE9F04314228BB0044600210DEB02009E
:1093B00004F074F82368374A934226D1364C374874
:1093C00000250095236B43F002032363236B03F016
:1093D00002030093009BC0230593122306930123ED
:1093E00007930323089305A90423099300F006FCBF
:1093F0000195236C43F400132364236C03F40013DE
:109400000193019B0BB0BDE8F083254A9342F9D14B
:10941000214C244800250295236B43F00403236369
:10942000236B03F004030293029B0395236B43F029
:1094300001032363236B03F001030393039B4FF0AA
:1094400012094FF400734FF001080327042605A901
:109450000593CDF81890CDF81C800897099600F078
:10946000CDFB4FF4807305A90F480593CDF81890F4
:10947000CDF81C800897099600F0C0FB0495236C7A
:1094800043F400032364236C03F400030493049B5C
:10949000B8E700BF0054004000380240000402401A
:1094A000005C0040000802400000024010B5142299
:1094B0008AB0044600210DEB020003F0EFFF2368A1
:1094C000214A934223D1214B002101915A6C42F44D
:1094D00080525A645A6C02F480520192019A0291AD
:1094E0001A6B42F002021A631B6B03F00203029331
:1094F000029B38230593022306930323089305A9AF
:1095000005231348099300F079FB0AB010BD114AF6
:109510009342FAD10D4B002103911A6C42F4804220
:109520001A641A6C02F480420392039A04911A6B33
:1095300042F002021A631B6B03F002030493049BC4
:109540004FF46043D6E700BF0030014000380240CE
:1095500000040240003800407047FEE7FEE7FEE7E7
:10956000FEE770477047704700F008B910B5114C1E
:1095700023689B0604D560680021C0B202F032FA6D
:10958000236818060FD5E36819060CD502F088F990
:109590004FF6FF73984209BFE368C0B223F080031F
:1095A000E36018BF6060034B1A68120748BF5B682E
:1095B00010BD00BF0044004010B5114C23689B064D
:1095C00004D560680121C0B202F018FA23681806B9
:1095D0000FD5E36819060CD502F0A8F94FF6FF7312
:1095E000984209BFE368C0B223F08003E36018BF6C
:1095F0006060034B1A68120748BF5B6810BD00BF6C
:109600000048004008B51E4B6FF001021A611D4B67
:109610001A6801321A601B685A0701D102F09CF8DF
:1096200019491A4A0B780133DBB2092B0B7011D997
:10963000174803780133DBB2037000230B701378F3
:1096400001331370134A1378C3B11378013BDBB2B3
:10965000137008BD1378092B10D9002313700E4A1C
:109660000E491368013313600B780133DBB20B70C2
:1096700013685B0702BF0A4B01221A7008BD00BFC6
:10968000000C004018020020A8000020A9000020C3
:109690001C020020250200202002002024020020BD
:1096A00014020020024B6FF001021A6103F0A6B809
:1096B000001400400F49D1F8883043F47003C1F81A
:1096C00088300D4B1A68002042F001021A60986041
:1096D0001A6822F0847222F480321A60074A5A60B3
:1096E0001A6822F480221A60D8604FF000638B6001
:1096F000704700BF00ED00E0003802401030002449
:1097000038B50E4A0E4B054618784FF47A73B3FB02
:10971000F0F31068B0FBF3F000F09CF8044658B981
:109720000F2D09D8024629464FF0FF3000F05EF8B1
:10973000044B20461D6038BD012038BD00000020CC
:10974000040000200800002008B50B4B1A6842F402
:1097500000721A601A6842F480621A601A6842F451
:1097600080721A60032000F02FF80120FFF7C8FF75
:10977000FFF7FAFD002008BD003C0240034A044BFD
:1097800011681B780B441360704700BF280200204B
:1097900004000020014B1868704700BF2802002019
:1097A00038B50446FFF7F6FF631C1CBF054B1B785A
:1097B000054618BFE418FFF7EDFF401B8442FAD8B6
:1097C00038BD00BF04000020074AD36823F4E063DB
:1097D0001B041B0C43F0BF63000243F4003300F48E
:1097E000E0600343D360704700ED00E0174B30B5F5
:1097F000DC68C4F30224C4F10703251D042B28BF31
:109800000423062D4FF0010505FA03F303F1FF339E
:109810008CBF033C00241940A14005FA04F4013C2C
:109820002240002842EA01024FEA0212ADBF00F1D5
:10983000604000F00F00064B00F56140B5BFD2B2AA
:10984000D2B21A5480F8002330BD00BF00ED00E012
:1098500014ED00E00138B0F1807F0AD2064B074AD0
:109860005860F02182F823100020072298601A60C7
:1098700070470120704700BF10E000E000ED00E0FD
:10988000084910B50C6924F440740C610C6944F467
:1098900040740C610C6944F001040C610260436087
:1098A00010BD00BF003C0240074B1A6922F4407211
:1098B0001A611A6942F400721A611A6942F00102CF
:1098C0001A610160704700BF003C0240074B1A69F3
:1098D00022F440721A611A6942F480721A611A699C
:1098E00042F001021A610180704700BF003C024053
:1098F000204BDA68D00606D51F49CA6942F010022B
:10990000CA611022DA60DA68910606D51A49CA6976
:1099100042F00802CA612022DA60164BDA68520669
:1099200006D51549CA6942F00402CA614022DA60CC
:10993000DA68100606D51049CA6942F00202CA6107
:109940008022DA600B4BDA68D10507D50A49CA696B
:1099500042F00102CA614FF48072DA60DA6892075D
:1099600006D50549CA6942F02002CA610222DA60BE
:10997000704700BF003C02402C020020064B1A69D1
:10998000002ABFBF054A5A6002F188325A60BABF46
:109990001869C00F00207047003C02402301674552
:1099A000034A136943F0004313610020704700BF6E
:1099B000003C0240F8B5124B124C00220546DA6119
:1099C000FFF7E8FE26460746E368DA030CD4E368AF
:1099D000DB0744BF0123E360F06810F4F97002D0A4
:1099E000FFF786FF0120F8BD691CEDD00DB90320FB
:1099F000F8BDFFF7CFFEC01B8542E5D2F7E700BFF9
:109A00002C020020003C02402DE9F041204D9846F8
:109A10002B7E012B07460E46144635D001234CF20F
:109A200050302B76FFF7C6FFB0B9CFB9194B1A6982
:109A300022F440721A611A691A611A69E4B242F09A
:109A400001021A6134704CF25030FFF7B3FF114A33
:109A5000136923F00103136100232B76BDE8F08125
:109A6000012F04D1A1B23046FFF730FFEBE7022F00
:109A700004D121463046FFF717FFE4E7224643466C
:109A80003046FFF7FDFEDEE70220BDE8F08100BFB3
:109A90002C020020003C0240074B1A6922F440725D
:109AA0001A611A6942F004021A611A6942F480329A
:109AB00042EA002018617047003C024039B1012998
:109AC0001CD002290CBF4FF400714FF440710D4BB4
:109AD0001A6922F440721A611A69114319611A69EC
:109AE00022F0F8021A611A6942F0020242EAC0004A
:109AF00018611A6942F480321A6170474FF480711C
:109B0000E5E700BF003C0240144B1A6891050FD5F1
:109B10001A6822F400721A601A6842F400621A602D
:109B20001A6822F400621A601A6842F400721A601D
:109B30000A4B1A6852050FD51A6822F480621A601F
:109B40001A6842F480521A601A6822F480521A602D
:109B50001A6842F480621A60704700BF003C0240FD
:109B60002DE9F843234E337E012B044688463FD02F
:109B700001234CF250303376FFF71CFF0546A8B99D
:109B80004FF0FF33C8F800302368012B13D1207C3D
:109B9000FFF782FF4CF25030FFF70CFF164A1369B3
:109BA00023F0040305461361FFF7AEFF002333766D
:109BB0002846BDE8F883A768DFF83C90E368A26810
:109BC00013449F42F0D2217C3846FFF777FF4CF2D6
:109BD0005030FFF7EFFED9F8103023F0FA03C9F840
:109BE000103018B1C8F800700546DDE70137E5E729
:109BF0000225DDE72C020020003C02402DE9F04F59
:109C000085B00B68DFF8A081654ADFF8A091019369
:109C100000234FF0010E019C0EFA03FE0EEA04062B
:109C2000B64540F0AA804C6824F01007022F16D1E8
:109C30004FEAD30A00EB8A0A03F0070BDAF8205048
:109C40004FEA8B0B4FF00F0C0CFA0BFC25EA0C0CB7
:109C50000D6905FA0BF545EA0C05CAF820504FEAE4
:109C6000430A0325D0F800B005FA0AF5ED4304F0E5
:109C7000030C0BEA050B0CFA0AFC013F4CEA0B0C37
:109C8000012FC0F800C011D8876807EA050BCF681C
:109C900007FA0AFC4CEA0B078760476827EA0E0EB2
:109CA000C4F300179F4047EA0E074760C7683D406E
:109CB0008F6807FA0AF73D43C560E5005DD54FF0B0
:109CC000000BCDF80CB0D8F84470364D47F48047FF
:109CD000C8F84470D8F8447007F480470397039F8E
:109CE00023F0030707F1804707F59C3703F0030CC7
:109CF000D7F808A04FEA8C0C4FF00F0E0EFA0CFEAE
:109D0000A8422AEA0E0E3FD005F58065A8423DD054
:109D100005F58065A8423BD005F58065A84239D09D
:109D200005F58065A84237D0484537D005F5006570
:109D3000A84214BF0725062505FA0CF545EA0E05CD
:109D4000BD601568F74314F4803F0CBF3D403543B8
:109D50001560556814F4003F0CBF3D403543556015
:109D6000956814F4801F0CBF3D4035439560D5685D
:109D7000A40254BF3D403543D5600133102B7FF41E
:109D800048AF05B0BDE8F08F5D46D5E70125D3E7C4
:109D90000225D1E70325CFE70425CDE70525CBE74D
:109DA000003C014000000240003802400014024024
:109DB0000AB1816170470904FBE701684B6913F43C
:109DC00080634FF0000210D06FF480634B6120235A
:109DD000026380F83D3080F83E20036C80F83C2020
:109DE00043F00403036401207047184670472DE9CF
:109DF000F843044617469946C1F307488EB22568D2
:109E0000B8F1010F0CBF6B69AB6936EA030314BFED
:109E10000120002008B9BDE8F8836B695A0516D502
:109E20002B6843F400732B606FF480636B61202216
:109E30000023236384F83D2084F83E30226C42F0F6
:109E40000402226484F83C300120BDE8F8837B1CC6
:109E5000D5D0FFF79FFCA0EB0900874201D3002F6C
:109E6000CDD100232022236384F83D2084F83E30A6
:109E7000226C42F02002E4E770B504460D46164617
:109E800023685B695B0701D5002070BD2046FFF7A2
:109E900094FFA8B96A1CF3D0FFF77CFC801B8542B5
:109EA00001D3002DECD100232022236384F83D2030
:109EB00084F83E30226C84F83C3042F02002226468
:109EC000012070BD2DE9F843089E044690461F46C8
:109ED000C1F307498DB22368B9F1010F0CBF5B696B
:109EE0009B6935EA03030CBF01230023434502D0DD
:109EF0000020BDE8F8837B1CEDD0FFF74BFC801BF6
:109F0000874201D3002FE6D100232022236384F867
:109F10003D2084F83E30226C84F83C3042F0200230
:109F200022640120BDE8F88370B504460D4616464C
:109F300023685B691B0601D5002070BD2046FFF732
:109F40003CFFA8B96A1CF3D0FFF724FC801B8542B4
:109F500001D3002DECD100232022236384F83D207F
:109F600084F83E30226C84F83C3042F020022264B7
:109F7000012070BD70B5044608B9012070BD90F88D
:109F80003D3003F0FF021BB980F83C20FFF708FAD0
:109F90002268242384F83D30136823F00103136002
:109FA00000F0F4F96568414B9D424DD8404B984212
:109FB000E3D922683F495368B0FBF1F123F03F0336
:109FC0000B435360136A23F03F03013119431162BD
:109FD000D169364B21F44F419D4221F0FF0100F140
:109FE000FF3048D86D00B0FBF5F00130C0F30B0333
:109FF000042B38BF04230B43D3611168206AE36943
:10A0000021F0C00103430B4313609168E0682369AA
:10A0100021F40341034321F0FF010B439360D16816
:10A02000A069636921F0FF0103430B43D360136808
:10A0300043F00103136000202023206484F83D30A6
:10A04000206384F83E0070BD1B4B984295D922686E
:10A05000184E5368B0FBF6F623F03F0333435360CA
:10A06000136A4FF49671714323F03F034FF47A76ED
:10A07000B1FBF6F1A9E7A36853B905EB4503B0FBC3
:10A08000F3F0431CC3F30B036BB143F40043B2E79B
:10A0900019236B43B0FBF3F0431CC3F30B0313B161
:10A0A00043F44043A7E70123A5E700BFA0860100D2
:10A0B0007F841E0040420F00FF083D002DE9FF4154
:10A0C00004461F460D469046FFF764FB94F83D306A
:10A0D000202B064604D00225284604B0BDE8F081B6
:10A0E00000901923012258492046FFF7EBFE002873
:10A0F000F1D194F83C30012BEDD0012384F83C30B1
:10A1000023681A68D2075EBF1A6842F001021A601B
:10A110001A6822F400621A60212284F83D2010227D
:10A1200084F83E20002222646785628D2285474A9A
:10A13000E262E26AC4F82480082A04D0012A02D02C
:10A1400012F5803F04D11A6842F480721A6002E06E
:10A15000226B122AF7D000960A9B00224FF00111C1
:10A160002046FFF7AFFE08B10125B5E72369226855
:10A17000B3F5804F13D105F0FE05156133460A9AF9
:10A1800033492046FFF733FE05460028ECD123680B
:10A1900003905A6903929B690393039B44E0EB117C
:10A1A00003F0060343F0F00313612A490A9A334689
:10A1B0002046FFF71CFE0028D6D12368EDB21D61B2
:10A1C000DCE732460A992046FFF7AEFE40B1236C29
:10A1D000042B01BF2268136843F400731360C3E7C4
:10A1E000636A20681A4612F8011B01616262628D7F
:10A1F000013A92B26285228D4769511E89B27F076A
:10A2000021850AD549B15978016102336362638DB2
:10A21000013B9BB2023A6385228532460A99204669
:10A22000FFF72AFE0028D2D1238D002BC9D1216847
:10A230000A6842F400720A60202284F83D2084F803
:10A240003C3084F83E3047E7020010000000FFFF7A
:10A2500002000100080001002DE9F0410D4604460E
:10A2600010B90120BDE8F081444B1A6802F00F02DA
:10A270008A4228D321688F072DD4C80740D43F4B8A
:10A280001A6802F00F02954266D3226851076CD417
:10A29000130707D53A4A2169936823F4604343EAD8
:10A2A000C103936000F082F8354B364A9B68C3F3D4
:10A2B0000313D35CD840344B18600120FFF720FA19
:10A2C0000020BDE8F081CAB21A701B6803F00F03CA
:10A2D0009942C6D1CEE72A4B11F0040F1EBF9A68EF
:10A2E00042F4E0529A600E0742BF9A6842F460421C
:10A2F0009A609A68A06822F0F00202439A60BCE774
:10A3000062681F4B012A1DD11B6813F4003FA8D0BF
:10A310001B4EB36823F003031343B360FFF73AFA0D
:10A3200041F288380746B368626803F00C03B3EB68
:10A33000820FA4D0FFF72EFAC01B4045F3D90320AB
:10A34000BDE8F081911E01291B6802D813F0007F3F
:10A35000DDE713F0020FDAE7EAB21A701B6803F0C8
:10A360000F039D427FF47DAF8FE70549E0688B685E
:10A3700023F4E05303438B608AE700BF003C0240B4
:10A3800000380240EFE4000800000020044B054ABA
:10A390009B68C3F38223D35C034A1068D84070479C
:10A3A00000380240FFE40008000000201C4908B506
:10A3B0008B6803F00C03082B03D00C2B1AD0194820
:10A3C00008BD4A684B684968164813F48003C1F316
:10A3D000881118BF002302F03F02A1FB0001FDF726
:10A3E00087FE0F4B5B68C3F3014301335B00B0FB97
:10A3F000F3F008BD4A684B6849680A4813F48003C3
:10A40000C1F3881118BF002302F03F02A1FB000135
:10A41000FDF76EFE024B5B68C3F30273E7E700BF14
:10A42000003802400024F40003682DE9F341DF07FF
:10A43000044610D423689E0767D423681A0700F1E6
:10A44000B28023685B0700F1D080A269002A40F047
:10A45000398100201EE0974B9A6802F00C02042A12
:10A4600010D09A6802F00C02082A02D15B685D02E3
:10A4700008D4904B9A6802F00C020C2A0DD15A684D
:10A4800050020AD58B4B1B689903D3D56368002B08
:10A49000D0D1012002B0BDE8F0816268B2F5803F02
:10A4A00011D11A6842F480321A60FFF773F9814DB6
:10A4B00006462B689A03BDD4FFF76CF9801B64280D
:10A4C000F7D90320E6E77B4DB2F5A02F2B6807D123
:10A4D00043F480232B602B6843F480332B60E4E744
:10A4E00023F480332B602B6823F480232B60002A15
:10A4F000DBD1FFF74FF906462B689B039AD5FFF790
:10A5000049F9801B6428F7D9DBE76A4B9A6812F097
:10A510000C0F10D09A6802F00C02082A02D15B6876
:10A520005F0208D5634A936803F00C030C2B11D12A
:10A5300053685E020ED45F4B1A68950702D5E26835
:10A54000012AA6D11A68216922F0F80242EAC10262
:10A550001A6072E7E268584BB2B101221A60FFF745
:10A5600019F9544D06462B68980707D52B682269C0
:10A5700023F0F80343EAC2032B605EE7FFF70AF912
:10A58000801B0228EFD99CE71A60FFF703F9494DB9
:10A5900006462B6899077FF550AFFFF7FBF8801B45
:10A5A0000228F6D98DE76269444B7AB101221A601C
:10A5B000FFF7F0F83F4D06466B6F9F073FF541AF41
:10A5C000FFF7E8F8801B0228F6D97AE71A60FFF750
:10A5D000E1F8384D06466B6F98077FF532AFFFF70D
:10A5E000D9F8801B0228F6D96BE7324B1A6C12F0AF
:10A5F000805228D101921A6C42F080521A641B6C6E
:10A6000003F080530193019B01262D4D2B68D90542
:10A610001BD5A368274D012B27D12B6F43F00103D6
:10A620002B67FFF7B7F8234D074641F288382B6FA9
:10A630009B0739D5002E3FF408AF1E4A136C23F058
:10A640008053136401E70026DFE72B6843F480732F
:10A650002B60FFF79FF807462B68DA05D9D4FFF780
:10A6600099F8C01B0228F7D92BE7052B04D12B6FD3
:10A6700043F004032B67D0E72A6F22F001022A6718
:10A680002A6F22F004022A67002BCAD1FFF782F852
:10A6900041F2883807462B6F9807CBD5FFF77AF839
:10A6A000C01B4045F7D90CE7FFF774F8C01B4045C5
:10A6B000BDD906E70038024000004742800E4742FD
:10A6C00000700040234DAB6803F00C03082B3FF4EF
:10A6D000E0AE214E0023022A33602DD1FFF75AF855
:10A6E00007462B68990121D4226AE3691343626A01
:10A6F00043EA8213E26A43EA0263226B43EA02738B
:10A70000A26A144C5208013A43EA02436B600123E7
:10A710003360FFF73FF8054623689A013FF599AE8D
:10A72000FFF738F8401B0228F6D9CAE6FFF732F8DF
:10A73000C01B0228D5D9C4E6FFF72CF804462B68C5
:10A740009B017FF586AEFFF725F8001B0228F6D99E
:10A75000B7E600BF003802406000474210B504462B
:10A76000002836D00023836290F8513003F0FF02B6
:10A770001BB980F85020FEF799FE2168A068A269F5
:10A78000022384F851300B6823F040030B606368A8
:10A790000343E06803432069034360690343E069BE
:10A7A0000343206A0343A06A034302F40070034397
:10A7B0000B60120C636A02F004021A434A60CB6910
:10A7C00023F40063CB6100200123606584F85130DD
:10A7D00010BD012010BD0000114B124AF0B503F569
:10A7E000807353F8F84C9B6892682343134313F02B
:10A7F000010412D10C4F43684D680E683B4045B1CF
:10A800008A682B4333431343CA681343436020468B
:10A81000F0BD334343602846F0BD0120F0BD00BFCA
:10A820000020014000220140E010FCFF836813F08B
:10A83000010330B511D144680A688D68496824F075
:10A8400040742A4324F4807422434260826822F4D4
:10A8500000620A438260184630BD012030BD00000E
:10A860008368DB0710B51BD443684A6823F4684348
:10A8700012B18C681343234343608468094B23401F
:10A88000CC6823430C690968234301F070610B43D2
:10A890008360C36A23F470031343C362002010BDB6
:10A8A000012010BDFDFCFFC070B501F0100105686E
:10A8B000012303FA01F4AC431ED053681468D66830
:10A8C0007BB19268056823431343334340F6FA741F
:10A8D0008B4004FA01F125EA0101194301600020CF
:10A8E00070BD02683443FA258C4005FA01F122EA72
:10A8F00001010C430460F2E7184670BD2DE9F043F6
:10A900000A6892FAA2F44FF0010EB4FA84F4032517
:10A910000F2732FA04F30DD14B68013B012B06D807
:10A920004368C96823EA02034A431A43426000208D
:10A93000BDE8F0830EFA04F3134069D0D1F8048027
:10A94000D0F8009093FAA3FCBCFA8CFC93FAA3F61F
:10A95000B6FA86F64FEA4C0C05FA0CFC760029EAAA
:10A960000C0C08FA06F64CEA0606066008F1FF36FB
:10A97000012E16D8866893FAA3FCBCFA8CFC93FAD5
:10A98000A3F94FEA4C0C05FA0CFC26EA0C0CB9FAB8
:10A9900089F98E684FEA490906FA09F64CEA060673
:10A9A0008660C66893FAA3FCBCFA8CFC93FAA3F900
:10A9B0004FEA4C0C05FA0CFC26EA0C0CB9FA89F9A2
:10A9C0000E694FEA490906FA09F64CEA0606B8F19B
:10A9D000020FC6601CD193FAA3F6B6FA86F6072ECC
:10A9E000D1F814C016DCD0F8208093FAA3F6B6FA9A
:10A9F00086F693FAA3F3B3FA83F3B60007FA06F6E2
:10AA00009B0028EA06060CFA03FC46EA0C060662DE
:10AA100001347EE7D0F824801B0A93FAA3F6B6FA35
:10AA200086F693FAA3F3B3FA83F3B60007FA06F6B1
:10AA30009B0028EA06060CFA03F333434362E7E778
:10AA4000094B0A4A596858685B68C3F30143C0F36D
:10AA50008810013301F03F015B00B2FBF1F250437B
:10AA6000B0FBF3F0704700BF003802400024F40050
:10AA7000034B044A9B68C3F30313D35CD84070476D
:10AA800000380240EFE40008034B044A9B68C3F31C
:10AA90008223D35CD840704700380240FFE40008AE
:10AAA000034B044A9B68C3F34233D35CD8407047DE
:10AAB00000380240FFE400080A4A0828536801D120
:10AAC000FFF7BEBF516853685068074AC3F3881345
:10AAD00001F03F01C0F30270B2FBF1F25343B3FB4C
:10AAE000F0F07047003802400024F400074B9868EB
:10AAF00000F00C00082803D00C2804D0044870474C
:10AB00005B68FFF79DBFFFF7D7BF00BF003802406B
:10AB10000024F40010B50446FFF7E8FF2060FFF7BB
:10AB2000A7FF6060FFF7B0FFA0606068FFF7B8FFA5
:10AB3000E06010BD2F4A0368904212D0B0F1804F00
:10AB40000FD0A2F57C4290420BD002F58062904279
:10AB500007D002F58062904203D002F5784290421D
:10AB600019D14A6823F070031343224A904229D036
:10AB7000B0F1804F26D0A2F57C42904222D002F55F
:10AB8000806290421ED002F5806290421AD002F597
:10AB90007842904216D0184A904213D002F5806253
:10ABA00090420FD002F5806290420BD0A2F598320D
:10ABB000904207D002F58062904203D002F5806295
:10ABC000904203D1CA6823F44073134303608B6837
:10ABD000C3620B888362074B984203D003F58063FE
:10ABE000984201D10B7C0363436943F00103436145
:10ABF00000207047000001400040014030B5C368AC
:10AC00009B0485B004460D4602D5012005B030BD39
:10AC10004B68C968C2680B4329690B43A96922F4D0
:10AC200016420B4322F00C021343C3600369AA6867
:10AC300023F440531343036143696A6923F4407367
:10AC4000134343616846FFF765FF274B9C4225D1BC
:10AC5000039B002BD9D029680029D6D0AA69B2F568
:10AC6000004F4FF019022ED15A434900B2FBF1F2C6
:10AC70006421B2FBF1F001FB1023DB003233B3FBA4
:10AC8000F1F39BB203F007025B0002EB001203F446
:10AC9000F87313449BB2A3600020B7E7134B9C42A8
:10ACA00001D1029BD5E7124B9C42FAD003F54C43ED
:10ACB0009C42CDD0A3F548439C42F2D003F580637B
:10ACC0009C42A2D1EDE7534364228900B3FBF1F328
:10ACD000B3FBF2F102FB11331B013233B3FBF2F38E
:10ACE00003EB0113D6E700BF001001400044004011
:10ACF000004800400C4B1A68136843F0400313608F
:10AD00000A4B5A6842F480525A609A689207FCD5FE
:10AD1000074A107099680906FCD404498B68DB0760
:10AD2000FCD51078704700BF0801002000380040B3
:10AD30000C380040FEF734BD38B50C4C05460022F7
:10AD400020468021FFF734F800224FF4807120461E
:10AD5000FFF72EF82846FFF7CDFF204601224FF4DB
:10AD60008071BDE83840FFF723B800BF00080240FB
:10AD700038B50C4C0546012220468021FFF718F813
:10AD800000224FF480712046FFF712F82846FFF7A3
:10AD9000B1FF204601224FF48071BDE83840FFF733
:10ADA00007B800BF00080240044B80221A805A8076
:10ADB00000221871DA801A81704700BF4C0200200F
:10ADC00038B5474C054601224FF480512046FEF726
:10ADD000EFFF6420FFF7AEFF00224FF480512046C2
:10ADE000FEF7E6FF6420FFF7A5FF01224FF4805134
:10ADF0002046FEF7DDFF6420FFF79CFFAE20FFF743
:10AE00009BFF1520FFF798FF0020FFF795FF7F209D
:10AE1000FFF792FF7520FFF78FFF0020FFF78CFFF1
:10AE20007F20FFF789FF8120FFF786FF8020FFF753
:10AE300083FFA020FFF780FF5120FFF77DFFA120B7
:10AE4000FFF77AFF0020FFF777FFA220FFF774FFDC
:10AE50000020FFF771FFA420FFF76EFFA820FFF787
:10AE60006BFF7F20FFF768FFB120FFF765FFF12040
:10AE7000FFF762FFB320FFF75FFF0020FFF75CFFE3
:10AE8000AB20FFF759FF0120FFF756FFB620FFF771
:10AE900053FF0F20FFF750FFBE20FFF74DFF0F209D
:10AEA000FFF74AFFBC20FFF747FF0820FFF744FFEA
:10AEB000D520FFF741FF6220FFF73EFFFD20FFF79F
:10AEC0003BFF1220FFF738FF2846FFF76DFFC82031
:10AED000FFF730FFAF20BDE83840FFF72DBF00BFC0
:10AEE00000040240F8B51C46124B15461A888242EF
:10AEF00007460E461CD35B888B4219D3AA4217D350
:10AF0000A34215D31520FFF717FFF8B2FFF714FF80
:10AF1000681EC0B2FFF710FF7520FFF70DFFF0B2FB
:10AF2000FFF70AFF601EC0B2BDE8F840FFF704BF9C
:10AF3000F8BD00BF4C0200200E4B10B51C888442A7
:10AF400017D35B888B4214D310F0010F4FEA8111A5
:10AF50004FEA5000084B084415BF02F00F0233F8C7
:10AF6000101033F8101041EA021218BF0A4323F8F8
:10AF7000102010BD4C020020560200200C4BF0B5F2
:10AF80005D881B880B4E40EA001000225B0880B2EF
:10AF90001446AC4209D3F0BD8F18013126F81700D2
:10AFA0009942F9D301341A44F3E70021F8E700BFCE
:10AFB0004C02002056020020F8B50F4C0F4F63885A
:10AFC000228800210846FFF78DFF00266288B3B271
:10AFD0009A420FD9002504E037F8020BC0B2FFF700
:10AFE000C7FE2288ABB2B3EB520F05F10105F3D3D4
:10AFF0000136EBE7F8BD00BF4C02002056020020EE
:10B000002DE9F84F9046264A8346108858450F464A
:10B010009DF8281002D35288BA4204D22148BDE8D4
:10B02000F84F02F09FBA012908D04FF0000A9CB2F5
:10B030001FFA8AF084421ED8BDE8F88F4FEA430910
:10B040009CB209F1FF390025ABEB040BA945F3DDF8
:10B05000002605EB0B0A09E0391B3144424689B250
:10B060001FFA8AF0FFF768FF0136B6B24E45F3DBF0
:10B070000135ADB2EAE758444FF0000985B207EB5D
:10B080000901424689B2284609F10109FFF754FF38
:10B090001FFA89F3A342F2D30AF1010AC8E700BFFD
:10B0A0004C020020040801082DE9F04F8BB09B46AC
:10B0B000BDF8503009939DF8543004939DF85830F2
:10B0C0000593364B92461A88824205460C4606D3B3
:10B0D0005B888B4203D3524501D35B4505D2304890
:10B0E0000BB0BDE8F04F02F03DBAAAEB0003ABEBAA
:10B0F0000109002BB8BF5B42B9F1000FB8BFC9F11D
:10B1000000090393C9F100030693504534BF01239E
:10B110004FF0FF330793594534BF01234FF0FF33FE
:10B120000893039B0027A3EB0908049B0137012B1D
:10B130007FB226D1032397FBF3F606EB4606BE1B30
:10B1400076B2F6B9049B00933246059B2146284609
:10B15000FFF756FF3746069BB3EB480F06DCAA45C0
:10B1600018D0079B1D44A8EB0908ADB2039BB3EBB5
:10B17000480FDADBA3450DD09844089B1C44A4B2C9
:10B18000D3E701230093099A059B21462846FFF740
:10B1900037FFE0E70BB0BDE8F08F00BF4C020020A6
:10B1A000CF0701082DE9FF471F462A4BBDF8308025
:10B1B000B3F800E09DF834909DF838A08645064627
:10B1C0000C46154606D35B888B4203D3964501D3C4
:10B1D000BB4205D2204804B0BDE8F04702F0C2B936
:10B1E000B9F1000F11D04FF00009BC4202D304B0F6
:10B1F000BDE8F087234621468DE800072A46304601
:10B200000134FFF751FFA4B2EFE70B468DE80007CA
:10B21000FFF74AFF3B463246214630468DE800079D
:10B22000FFF742FF23462A46394628468DE80007A5
:10B23000FFF73AFF3B46324639462846CDF838A05C
:10B24000CDF83490CDF8308004B0BDE8F047FFF77A
:10B250002BBF00BF4C020020700701082DE9F04F02
:10B260008BB01C46049198490390039E08889DF872
:10B2700050309DF85450B04203D34988049881421D
:10B2800005D892480BB0BDE8F04F02F06BB911B28F
:10B290005200C2F10308012B02910FFA88FB78D00B
:10B2A000002305930126BDF91430029A06939342B8
:10B2B00078DCBDF81480039BBDF808700096434409
:10B2C0009BB20793049B079803EB07091FFA89F9C0
:10B2D00049462B462246FFF793FE039B0096A3EBBD
:10B2E00008039BB2089349462B4622460898FFF76D
:10B2F00087FE039B0096A3EB070A049B43449BB283
:10B300001FFA8AFA099350462B4622460999FFF7FD
:10B3100077FE049B0096A3EB08091FFA89F95046B3
:10B320002B4622464946FFF76BFE049B0898009681
:10B33000A3EB070A1FFA8AFA51462B462246FFF76B
:10B340005FFE51462B46224607980096FFF758FEAF
:10B35000039B009603EB070A1FFA8AFA2B46224644
:10B3600049465046FFF74CFE00962B462246099967
:10B370005046FFF745FEBBF1000F80F298800BF1BD
:10B38000060202EB88080FFA88FB059B0133059340
:10B3900089E7002206921D46BDF91830029A0993EA
:10B3A000934202DD0BB0BDE8F08F0023BDF81870AA
:10B3B0000593039B3B449BB20893049B3B449BB285
:10B3C0000793BDF81460079B0898009506EB0308E7
:10B3D0001FFA88F8414601232246FFF711FE039B1E
:10B3E0000095A3EB07091FFA89F9A9EB060A414664
:10B3F0001FFA8AFA012322464846FFF701FE50460B
:10B400000123224607990095FFF7FAFD049B00955A
:10B41000A3EB07081FFA88F85046A8EB060A012399
:10B42000224641461FFA8AFAFFF7EAFD0123224627
:10B43000514648460095FFF7E3FD01232246514659
:10B4400008980095FFF7DCFD089B00951E44B6B2F6
:10B450000123224641463046FFF7D2FD0123224612
:10B46000009507993046FFF7CBFD059B029A013303
:10B470000593FB181BB29A42A3DABBF1000F09DA5D
:10B480000BF1060808EB87070FFA87FB069B0133D1
:10B49000069381E7029A099B0BF10A089B1A571E33
:10B4A00008EB83083BB20FFA88FB0293EEE7029A9F
:10B4B000069B0BF10A089B1A013F08EB83083BB27D
:10B4C0000FFA88FB029360E74C02002098070108FE
:10B4D0002DE9F04F85B01E46BDF838300293BDF817
:10B4E0003C3003932C4B894619888142804602D315
:10B4F0005B884B4505D2294805B0BDE8F04F02F006
:10B5000031B8B38813F0070418BF012404EBD30447
:10B51000A2F12003F2885A4333684D4602FB0434FB
:10B520004FF0010AA5EB0903F2889BB29A4230D989
:10B53000002717E0029A237800F0070BEAB980226F
:10B5400042FA0BF21A4208D04044CDF800A0012381
:10B55000039A294680B2FFF753FDBBF1070F08BFDE
:10B5600001340137B388B8B29842E3D35B0705F1E1
:10B57000010518BF0134ADB2D4E7802242FA0BF2C4
:10B580001A42CDF800A040444FF00103E0D1029AE6
:10B59000DFE705B0BDE8F08F4C0200202B07010863
:10B5A0002DE9F04F85B0204EBDF83CB01F46BDF8E8
:10B5B000383003933388834281468A462DD373887B
:10B5C0008B422AD302F1FF380D46044618F8012FAA
:10B5D00012B905B0BDE8F08FBB88318823448B4297
:10B5E000C8BFFB887188C8BFED18FB88CDF804B0D0
:10B5F000C8BFADB22B44C8BF4C468B42C8BF4C46F7
:10B60000039B0093C8BF55463B4620462946FFF79B
:10B610005FFFBB881C44A4B2D8E7044805B0BDE86E
:10B62000F04F01F09FBF00BF4C0200205F070108F0
:10B630002DE9F041424F8CB00020FFF79FFCFFF74F
:10B64000BBFC3A8800240F254FF002080123013A81
:10B6500019462046CDF808800194009592B2FFF774
:10B6600023FD3A8801260423013A02968DE8600002
:10B670001946204692B2FFF717FD7B883A8802965A
:10B68000053B9BB2013A8DE860001946204692B214
:10B69000FFF70AFD7B883A88CDF80880013B9BB212
:10B6A000013A194620460194009592B2FFF7FCFC3E
:10B6B0007B883A880296073B053A019400959BB235
:10B6C00092B207210520FFF76DFD3A8802960A2104
:10B6D0000A3A8DE860000846142392B2FFF762FD33
:10B6E000019600962B46174E032232210A20FFF7BF
:10B6F000B5FD1921334608468DE83000124AFFF7A0
:10B700004FFF33468DE83000104A2D211920FFF7F6
:10B7100047FF362304220E4904A801F02BFF0D4BEE
:10B7200004AA552132208DE83000FFF739FFFFF7DA
:10B7300043FC4FF42F70FFF7FDFA0CB0BDE8F08129
:10B740004C0200200C0000203A08010847080108BC
:10B75000540801081C000020064A074913785B00C2
:10B76000DBB21370096949075CBF43F00103137032
:10B77000704700BF644200200004024010B50D492C
:10B780000D4A09781368481CC0B203F5807301287C
:10B7900013600DD8D8B281420AD00848116043F036
:10B7A0004004046023F00F03054843F040030360A6
:10B7B00010BD00BF644200206042002068420020AB
:10B7C00058420020044B187828B1044A1168044AF2
:10B7D000116000221A607047584200206842002021
:10B7E0005C4200200A4B1A7848B1D10706D40949B7
:10B7F0000A7862F07F020A7081221A707047D207BD
:10B80000FCD504490A7862F07F020A708022F4E7CE
:10B81000C0600020C760002010B58AB0FFF7D2FFDB
:10B82000B8B1F0284FF0000013D10F4C0F4B226835
:10B830001860120A0E49684601F09CFE684600F046
:10B840006BF82368B3F5F85F05D30A48FCF706FFE9
:10B8500001200AB010BD084B1878C04300F0010069
:10B86000FFF7C0FFF4E700BF5C4200201002002099
:10B87000650801086C080108C0600020024A1378BE
:10B880000BB1013B13707047904A0020024A00231D
:10B890001360024A13607047884A002074460020F3
:10B8A0000A4A0B4B11681B6899420BD0136809496F
:10B8B000C85C13680133B3F5806F28BF00231360A1
:10B8C00080B270474FF6FF70704700BF744600208B
:10B8D000884A00206C4200200B4A0C491368096812
:10B8E0000133C3F309038B4210B50BD01168084C28
:10B8F00013606054074BDA6812065EBFDA6842F0E4
:10B900008002DA6010BD00BF884A00207446002023
:10B910006C4200200044004010B5441E14F8010F92
:10B9200000B910BDFFF7D8FFF8E700000A4A0B4B3B
:10B9300011681B6899420BD013680949C85C1368E9
:10B940000133B3F5806F28BF0023136080B27047C6
:10B950004FF6FF70704700BF8C4A002080460020E1
:10B96000984E00200B4A0C49136809680133C3F351
:10B9700009038B4210B50BD01168084C136060545A
:10B98000074BDA6812065EBFDA6842F08002DA60BE
:10B9900010BD00BF804600208C4A0020984E002039
:10B9A0000048004010B5441E14F8010F00B910BD46
:10B9B000FFF7D8FFF8E70000074A0849136809684D
:10B9C0000133C3F309038B4210B51FBF1168044C48
:10B9D0001360605410BD00BF944E0020844A0020C4
:10B9E000914A0020034B1870034B1E221A70FFF778
:10B9F000E3BF00BF914E0020904A0020064A10B5D8
:10BA0000136801331360054B1B781BB9FFF7D4FF94
:10BA1000034B187010BD00BF70460020904A0020F4
:10BA20006C46002070B5094D094C0A4E2A682368FF
:10BA30009A4200D170BD2368F05C00F00DFD2368D0
:10BA40000133C3F309032360F0E700BF944E0020E5
:10BA5000844A0020914A002070B586B00C4600262A
:10BA60000A4612490096054601F0FEFC98B1FDF722
:10BA700085FF022305936946012301A801960393DC
:10BA80000493FEF76DF8094E05EB8404A54204D13A
:10BA9000FDF786FF012006B070BD314655F8042B36
:10BAA00000230220FDF7B0FF0436EFE70040000856
:10BAB0002DE9F043334B34491A78344FDFF8E4E092
:10BAC000AA2A334A3ED193F8630055283AD1B3F8F5
:10BAD0000490B9F57A7F35D8D888B0F57A7F31D817
:10BAE000DE7AB3F81080B3F812C01D7D5C7D9B7DBB
:10BAF000A1F80090DFF8A890108006F07F060A20D9
:10BB000089F80060234E38704FF00F090120B8F516
:10BB10007A7F8EF8000086F8009013D8BCF57A7F03
:10BB200010D8A1F802801C49A2F802C005F07F02DB
:10BB30000A7004F07F024A70184A03F07F03137002
:10BB4000BDE8F0834FF496734B8040F24E23538050
:10BB50004FF4BE730B804FF4EB731380104A012334
:10BB600013708EF800300A233B700A4B0F221A70B4
:10BB7000094B002018705870084B02221A70BDE85B
:10BB8000F08300BF00400008B4600020C8600020BF
:10BB9000C2600020B8600020C9600020B9600020A9
:10BBA000C6600020D160002000B59BB06422002157
:10BBB00001A801F073FC2249224AAA238DF804301F
:10BBC00055238DF867300B88ADF808301388ADF831
:10BBD0000A301D4B1B7803F07F038DF80D301B4B93
:10BBE0001B7803F07F038DF80E30194B1B7803F0A0
:10BBF0007F038DF80F30174B1B7803F07F038DF810
:10BC000010304B88ADF814305388134AADF8163015
:10BC1000137803F07F038DF81830537803F07F0317
:10BC20008DF819300D4B1B78192103F07F0301A803
:10BC30008DF81A30FFF710FF1BB05DF804FB00BF52
:10BC40009C540020305B0020C8600020D1600020A0
:10BC5000C6600020B8600020C9600020B9600020E4
:10BC6000034B10B140229A6170474FF48002FAE70B
:10BC70000008024010B51649164A034608780C46DB
:10BC8000135420B9582B21D101230B7010BD0A2B5E
:10BC900001D00D2B10D1032812D9D378203BDBB271
:10BCA000F02B0DD813B10533984209D10138C0B239
:10BCB00000231354207010BD1F2B01D9F82802D97E
:10BCC0000020207010BD01300870002010BD00BFA2
:10BCD00096530020985200204FF4E373012201494B
:10BCE00001F048BC76080108034B1B780BB1FFF745
:10BCF00013BEFFF757BE00BF904A00202DE9F04168
:10BD00000468414905460422204601F0ADFBD8B93C
:10BD10003E4B1A883E4EDFF84881307854F8043B99
:10BD200040F808300430C0B230703A49404401F065
:10BD300021FC377808EB0700FCF782F938443070B3
:10BD40002C600120BDE8F08104223349204601F037
:10BD50008BFB08B9314BDCE704223149204601F066
:10BD600083FB10B9294B5A88D4E704222D49204679
:10BD700001F07AFB08B9294BF5E704222A4920464D
:10BD800001F072FB10B9294B1A7807E00422284908
:10BD9000204601F069FB20B9244B5A7802F07F025B
:10BDA000B8E704222349204601F05EFB08B9224B84
:10BDB000EAE704222149204601F056FB08B9204B4E
:10BDC000E2E704221F49204601F04EFB08B91E4B52
:10BDD000DAE704221D49204601F046FB10B91C4B4E
:10BDE0001A7897E704221B49204601F03DFB38B939
:10BDF000194B1978194B1B780A2212FB013289E77B
:10BE00000020BDE8F08100BFE7080108C260002003
:10BE1000945300201E090108EC080108B4600020BA
:10BE2000F1080108F6080108FB080108C9600020B4
:10BE30000009010805090108B86000200A09010885
:10BE4000C86000200F090108CB6000201409010818
:10BE5000C054002019090108D0600020D1600020E2
:10BE60009853002073B502AE0F4C46F8040D04231E
:10BE7000237000253046FFF741FF58B1019B1A7827
:10BE80000135EDB24AB12C2A04D101330193237854
:10BE9000E62BEFD9284602B070BD23780349013B59
:10BEA000DBB22370CA54F5E7945300209853002066
:10BEB000F0B51C78CCB11C4600260A2714F8015BAB
:10BEC00055B12C2D08D0303D5FFA85FEBEF1090F2B
:10BED0000ED807FB0656F1E786420CD38E420AD8ED
:10BEE000E01A0138166040B2F0BD4FF0FF30F0BDEF
:10BEF0006FF00100F0BD0020F0BD00002DE9F74318
:10BF0000A54F05683E78A54B2A68F250321DD2B283
:10BF10003D21995406EB0309134400225A7004464C
:10BF2000731D05229E493B70284601F09DFAC8B951
:10BF30006B1D01AA4FF47A71FFF7BAFFC0B270B15E
:10BF4000984B019A1A80984A137863F07F03137014
:10BF5000964B01221A702368421D1344236003B0DC
:10BF6000BDE8F08305229249284601F07DFAC0B968
:10BF70006B1D01AA4FF47A71FFF79AFFC3B2581DE7
:10BF80006BB18C4B019A1A80874A137863F07F0358
:10BF90001370864B01221A70236803442360C0B2D9
:10BFA000DDE705228449284601F05EFA68B96B1D79
:10BFB00001AA4FF47A71FFF77BFFC3B2581D002B23
:10BFC000EDD0019A774B5A80DEE705227B4928465F
:10BFD00001F04AFA60B96B1D01AA4FF47A71FFF7BC
:10BFE00067FFC3B2581D002BD9D0019A714BEAE705
:10BFF00005227349284601F037FA68B96B1D01AA7A
:10C000007F21FFF755FFC3B2581D002BC7D0019BFE
:10C010006C4A63F07F03BBE706226B49284601F0B8
:10C0200023FAA0B9AB1D01AA6321FFF741FFC3B2F8
:10C03000981D002BB3D0634A0199137803F07F0356
:10C040000B447F2B88BF7F230193019B9EE7062231
:10C050005E49284601F008FA804690B9AB1D01AA56
:10C060006321FFF725FFC3B2981D002B97D0554AD7
:10C070000199137803F07F035B1A7F2B88BF434637
:10C0800084E705225249284601F0EEF978B96B1D84
:10C0900001AA7F21FFF70CFFC3B2581D002B3FF40C
:10C0A0007EAF019B474A63F07F03537071E706221E
:10C0B0004849284601F0D8F9B8B9AB1D01AA632157
:10C0C000FFF7F6FEC3B2981D002B3FF468AF3D4A60
:10C0D0000199537803F07F030B447F2B88BF7F23A4
:10C0E0000193019B63F07F03DFE706223A4928466C
:10C0F00001F0BAF998B9AB1D01AA6321FFF7D8FE88
:10C10000C3B2981D002B3FF44AAF2E4A01995378D1
:10C1100003F07F035B1A7F2B88BF0023E0E7052233
:10C120002E49284601F0A0F9B8B96B1D01AA1321C8
:10C13000FFF7BEFEC3B2581D002B3FF430AF019B8A
:10C14000274A63F07F031370184B01221A70164AB6
:10C15000137863F07F0313701EE7052221492846F8
:10C1600001F082F9002841D16B1D01AA7F21022034
:10C17000FFF79EFEC0B260B1019B1B4A63F07F03D4
:10C1800013700A4B01221A70074A137863F07F0379
:10C190001370053003E700BF94530020985300202C
:10C1A0008A080108C2600020C7600020D06000201B
:10C1B00090080108B4600020960801089C08010856
:10C1C000A2080108C9600020A8080108AF080108FA
:10C1D000B6080108BC080108C3080108CA0801081C
:10C1E000C8600020D0080108B860002005221D4961
:10C1F000284601F039F9D0B96B1D01AA2121FFF7BA
:10C2000057FEC0B20028C4D001990A22B1FBF2F354
:10C2100002FB131202F003021349013B62F07F029A
:10C2200003F003030A7063F07F03104AA8E70522B6
:10C230000F49284601F018F960B96B1D01AA632166
:10C24000FFF736FEC0B20028A3D0019B094A63F075
:10C250007F0395E708494846013601F0AFF93E7083
:10C2600000207CE6D6080108D1600020B9600020DB
:10C27000DC080108CB600020E208010873B502AEBB
:10C280000D4D46F8040D04222A7000243046FFF7B5
:10C2900035FE70B1019B1A780134E4B222B12C2A28
:10C2A00007D101330193F1E72978044B0B4403F8DC
:10C2B000012C204602B070BD9453002098530020FA
:10C2C0002DE9F041194D1E46F0284FF07803044641
:10C2D000884617462B7024D866B130B93046FBF734
:10C2E000AFFEC4B2F12C28BF0024224631461048CC
:10C2F00001F0C9F807F03F0708F120084037202374
:10C30000EB7085F802806F7025442E232B710D236E
:10C310006B710A23AB710023E01DEB7180B2BDE8A5
:10C32000F081002EDAD13446E4E700BF98530020B4
:10C330009C53002010B53F4B14463F39002286B075
:10C340001A601B2973D8DFE801F00E7272727272E4
:10C35000197250727272723072721F4472725B7212
:10C3600072727264726B01A8FFF7B6FC01AB2246D1
:10C370003F210020FFF7A4FF06B010BD0028FBD02E
:10C38000034622464521F4E70028F5D003782A4ADF
:10C3900003F0030363F07F0313704F21274B224602
:10C3A0000020FFF78DFF0120E6E70028E4D00378A6
:10C3B000234A03F00303803B1370224A137863F08F
:10C3C0007F031370204B01221A704C210023224658
:10C3D000CFE70028D0D0FFF751FF1C48FBF730FE15
:10C3E000002322465021C0B2C4E70028C4D0FFF782
:10C3F00039FD1748FBF724FE002322464721F2E7C8
:10C40000FFF7D2FB134B80221A700F4B00221A70D9
:10C41000C9E70120FFF7E6F9084B22465821A8E7B3
:10C420000020FFF7DFF9054B22465A21A1E7002043
:10C43000A2E700BF10020020CC600020E408010841
:10C44000D1600020C7600020D060002098530020F9
:10C450009C530020CB60002008B5FFF70BFC70B1A7
:10C460000748427881780430FFF764FF10B105482F
:10C47000FFF73AFC034A00231370034A137008BD08
:10C480009852002098530020965300204FF47022B9
:10C4900092FAA2F2B2FA82F200F47020D040054A79
:10C4A00052F8203023F47F6323F00F030B4342F84C
:10C4B00020307047087400402DE9F84F4C4B03EBD7
:10C4C0000228002800F08280B1FA81F35B09B1F5FF
:10C4D0007A7F1D4602D8B0F57A7F01D943F0020574
:10C4E00000EB5103B3F57A7F424B23F81200424B25
:10C4F00023F812104FF01403B1FBF3F2B0FBF3F387
:10C5000043EA02233D4A13803D4B1B78C8BF45F0E8
:10C51000040503F07F03C8BFEDB2012B5CD057D3F5
:10C52000022B5BD04FF4FA63C1EB0136B6FBF3F696
:10C53000344B93F8009040F6FF73C0EB00304FF49B
:10C540007A74B6B2B0FBF4F4A1FB03ABA4B200273B
:10C550002D4B53F82700B9F1000F41D100FB0BF22E
:10C56000002303FB0A23A0FB0A011944274A40F2D7
:10C57000E733FBF7BDFD204480B2864236D8801BEE
:10C5800080B2B0F5805F04D345F01005EDB240F6FF
:10C59000FF7028F817000137802FD9D11C4B1B885A
:10C5A0004FF4B471C3F3080292FBF1F301FB1323C0
:10C5B000184ADB0193FBF1F31380174B174A1B78E2
:10C5C00003F07F0313702846BDE8F88F01237EE750
:10C5D0000122134B1A70A5E70222FAE70322F8E7BB
:10C5E0000028ACBF00204FF0FF30B7E70020D0E7B5
:10C5F000C2540020305B00209C5400209660002034
:10C60000B96000209A6000205C09010818FCFFFF57
:10C61000CE60002094600020D1600020DD56002014
:10C62000DC560020084900220023C1E90023074905
:10C63000C1E900230649C1E900230649C1E90023F5
:10C64000054B1A60704700BFB0540020A054002072
:10C65000385C0020A86000209C6000202DE9F04399
:10C66000DFF894E1DDF81CC09DF82040DEE90067AA
:10C67000090CA1F5004103FB01F5761947EBE577BD
:10C68000574DCEE90067D5E900670CFB01F1120CAC
:10C690007618A2F50048534A47EBE177C5E90067F1
:10C6A000D2E9006708FB03F3F6184F4947EBE3773D
:10C6B000C2E90067D1E9006708FB0CFC16EB0C0629
:10C6C00041F6FE7347EBEC779842C1E900671046EC
:10C6D00040F28280454B1E78F2073FD5444ABEF8AF
:10C6E0000280B0F802904FF40A7303FB04F707EBE3
:10C6F000020C27F80280BEF80480ACF8028007F133
:10C70000040C0CEB02082CF80290B0F804C0A8F856
:10C7100002C057F802C003FB0423BCF1000FBCBFEA
:10C72000CCF1000C47F802C05F684FF40A7C002F80
:10C730000CFB04FCBCBF7F425F6052F80C3002EB84
:10C740000C074FEA232842F80C807B68BA681B125A
:10C7500001327B6004BFC7F80880FB600023002221
:10C76000CEE90023C0E90023B30732D5214A6F8800
:10C77000B1F802E04FF40A7303FB04F08618875205
:10C78000AF887780061DB71826F802E08E887E8075
:10C79000865803FB0423002EBCBF7642865058689F
:10C7A0000028BCBF404258604FF40A706043131821
:10C7B0001658361216505A689868121201305A608C
:10C7C00004BFDA609E6000220023C5E90023C1E9AE
:10C7D0000023B4FA84F464092046BDE8F08300BF66
:10C7E000A8600020B0540020385C0020DC560020F7
:10C7F000E0560020445C0020A05400202DE9F347BF
:10C80000494B1B782BB1494B18781F4620B1013892
:10C81000187002B0BDE8F087454B464D464CDFF836
:10C8200038916FF0020119609A6842F080429A6074
:10C830002960AA6842F08042AA60404A118801310A
:10C8400089B27F2994BF11801080B2F800E03C4883
:10C850000EF07F02A24650F822103A4A11600EF103
:10C86000200202F07F0250F8222037480260206840
:10C87000461CC6F30C06002E49D1344C2478032CF8
:10C8800045D199F800404FF0320CB4FA84F46409B1
:10C8900087F800C00EEBC41EDFF8C0C0DFF8C08010
:10C8A0003CF81EE0A8F800E0D3F800E01EF0020F0C
:10C8B000FAD0DFF8B0E0DB6CAEF80030D5F800E07D
:10C8C0001EF0020FFAD0ED6CDFF89CE0AEF80050DD
:10C8D00099F800E0CDF804E0ADB200959BB280B2CB
:10C8E000FFF7BCFECAF8006089F8004026B98CB199
:10C8F00031461748FFF7CAFD99F80030B8F8001024
:10C900007BB1144802B0BDE8F047FFF7BFBD99F80E
:10C910000040BFE721460F48FFF7B8FD05233B70F5
:10C92000EAE70B48EEE700BFC1540020BA540020EC
:10C9300000200140002101409C6000209860002000
:10C940005C090108BC54002098540020DD560020EA
:10C950000100100212004315C2560020C2540020EC
:10C96000A8540020B0600020C456002010B54FF439
:10C97000004310211A4603FB03F4844288BF53404E
:10C9800001394FEA520201D01343F4E7184610BDB3
:10C9900010B54FF48A6422460021054800F07EFD60
:10C9A000224600210348BDE8104000F077BD00BFDB
:10C9B000445C0020E056002010B591F81A4201EBCB
:10C9C0004403588391F82422D1F820320344A01A5A
:10C9D000C0B201EB40000134408B81F81A42181AB2
:10C9E00091F81B32C1F820020133DBB2934228BF19
:10C9F000134681F81B32B0FBF3F0088310BD38B545
:10CA00008468631C054614D0C06840084FF0FF33AB
:10CA100064084043AB6004FB0400FFF7A7FF400835
:10CA2000C000A40068612C612946FFF7C5FF012002
:10CA300038BD002038BD0000F0B5444B444F596963
:10CA4000D3F83C22434B7E691B78D7F83C5213F055
:10CA500001041FBF41F6C81436090909664317BF10
:10CA60004C432646360B240B13F002011FBF41F640
:10CA7000C8112D0912094D4318BF5143364A127887
:10CA80000EBF0D462D0B090B12F0010E04BF7546AB
:10CA90002E4612F0020E02EB820203EB4202D3B2E8
:10CAA00097F8252204BF71460C4602F1010E12F0E0
:10CAB0000F0F8BB087F825E201D000283CD0274F1C
:10CAC000DFF8B0C07878DFF8B0E000F07F000990C0
:10CAD0003878BCF8027000F07F0008900A20B7FB9D
:10CAE000F0F70797BEF80270B7FBF0F70697BCF8AF
:10CAF0000070B7FBF0F70597BEF800700391B7FB25
:10CB0000F0F002940490019500961549154800F044
:10CB100031FD1448FEF700FF1248FEF743FF124AAA
:10CB2000124953780F48127800F024FD0D480BB0DD
:10CB3000BDE8F040FEF7F0BE039102940195009627
:10CB40000B49084800F016FDE3E700BF445C0020F5
:10CB5000E0560020DD560020DC560020C960002091
:10CB600023090108345B0020B401002049090108B1
:10CB7000350901089C540020305B0020F0B587B0D7
:10CB80001422002101A800F089FC184B184C1A68E7
:10CB900022F001021A601A6822F480321A602046DC
:10CBA00000221021FDF704F9002220462021FDF784
:10CBB000FFF800250123102701A920460293202613
:10CBC000039504950197FDF719F801A920460196F0
:10CBD000FDF714F82A4639462046FDF7E9F82A46BB
:10CBE00031462046FDF7E4F807B0F0BD0074004080
:10CBF0000000024008B500210648FFF747FC00216D
:10CC00000548FFF743FCFFF7B9FF044B00221A70F9
:10CC100008BD00BF0100100212004315C1540020DE
:10CC200030B5144C144D87B01422002101A800F037
:10CC300035FC236843F001032360236843F4803309
:10CC400023600323029301A9102328460193FCF7D4
:10CC5000D5FF202301A928460193FCF7CFFF2368C5
:10CC600043F001032360236843F48033236007B05B
:10CC700030BD00BF007400400000024070B5294E76
:10CC80000024FFF7CDFF3470FEF700FEFFF7CAFC6B
:10CC9000254B264A1B8803F07F01203303F07F03D6
:10CCA00052F8210052F823202149224B08601A60D3
:10CCB000FFF76EFE204B214A1B7803F07F0382F8BA
:10CCC000243282F84C341E4A82F8243282F84C34E2
:10CCD0001C4B1B78022B1C4B06BF01221A701C70C8
:10CCE0001A4A1C781A4B00251580A4B1B3F800111C
:10CCF0001848FFF7CBFB18482946FFF7C7FB174B2F
:10CD0000002202201A80FCF74BFD154B32221A70CC
:10CD10000123337070BD19880F48FFF7B7FB214618
:10CD20000C48EAE7C1540020946000205C09010827
:10CD3000BC54002098540020B8600020E056002029
:10CD4000445C0020DD560020C2560020B060002068
:10CD5000C254002012004315010010029860002008
:10CD6000BA5400202DE9F04117465A691B8BC2F3D3
:10CD70000F1E1B0941F6C81296B002FB0EFE5A4365
:10CD80004FF47A7C120B9DF87850B2FBFCF84FEA16
:10CD90001E3E0CFB18229DF87C40BEFBFCF3029269
:10CDA0000CFB13E20E46FF2D1D99009202460C4823
:10CDB000CDF8048008BF0F25FF2C08BF00240029F0
:10CDC00008BF014604A800F0D5FB8DE830001C9B8D
:10CDD00004AA39463046FEF7E3FB16B0BDE8F08101
:10CDE000600B01082DE9F04FA74D2B78032B93B072
:10CDF0000AD00020FEF7C2F82C7804F07F04032C40
:10CE00002C7004D1FEF7D8F813B0BDE8F08F012CD8
:10CE10009E4DDFF8DC829E4E35D12A682968642356
:10CE2000B2FBF3F202F003024FF47A7318F8022017
:10CE3000B1FBF3F305A8974900F09CFB0F250023F5
:10CE40008DE8280005AA944B21460A20FEF7A8FB8E
:10CE500031789248924A01F07F0101294FF0FF0397
:10CE600009D102938F4B00920391019028228E48A2
:10CE7000FFF778FFC6E703930293009201908B4B74
:10CE800028222146F3E7022C4CD12A682968642322
:10CE9000B2FBF3F202F003024FF47A7318F80220A7
:10CEA000B1FBF3F305A87B4900F064FB0F240023DA
:10CEB0008DE8180005AA784B794C01210A20FEF76D
:10CEC0006FFB3178754A01F07F0101294FF0FF03B4
:10CED00018D10293734B019203910094142272486B
:10CEE000FFF740FF3178724A01F07F0101294FF0CE
:10CEF000FF030FD102936F4B0192039100945022D4
:10CF00006D48B5E70393029301920094674B142296
:10CF10000121E4E70393029301920094674B5022AE
:10CF20000121EDE7DFF8CCA1DFF8CCB1BAF80010B1
:10CF3000BBF80020642401EB411191FBF4F696FB51
:10CF4000F4F004FB106042F2107702EB421291FB06
:10CF5000F7F192FBF4F3019093FBF4FE92FBF7F2EE
:10CF600004FB1E33009105A8554900F003FB4FF068
:10CF700000090F2605210846474B019605AACDF862
:10CF80000090FEF70DFBBAF80210BBF8022001EB8F
:10CF9000411191FBF4FE9EFBF4F004FB10E091FBC9
:10CFA000F7F102EB4212019092FBF4F3009193FB34
:10CFB000F4FC92FBF7F204FB1C334249424F05A8F4
:10CFC00000F0D8FA344B019605AA31460520CDF879
:10CFD0000090FEF7E5FA2A683B7829683B4DB2FBE2
:10CFE000F4F404F003044B452B7818F80420009265
:10CFF0004FF47A7014BF21222022B1FBF0F103F02C
:10D000007F03019105A83249324C00F0B3FA05AA1A
:10D01000214B01961921CDF800900520FEF7C0FAAA
:10D020007B782D494B4509786B7814BF212220224B
:10D0300003F07F0329B32178284811F07F0F284996
:10D0400018BF0146009105A82649274E00F092FA24
:10D050000F2500238DE8280005AA0F4B232105206A
:10D06000FEF79EFA214B96F814801A7802F07F02A0
:10D07000013A032A4BD8DFE812F04100CF00D60076
:10D08000DD001749DEE700BFCC6000201802002059
:10D09000B96000208A0B01081C0000209D0B0108CC
:10D0A00014000020445C0020300C0108E0560020F1
:10D0B000B10B01086C5E0020360C010808590020F5
:10D0C000C50B0108DB0B0108B4010020C96000207A
:10D0D000F10B0108D1600020B26000207A0B01083A
:10D0E000800B01080B0C010860420020BA60002090
:10D0F0005C0B01089C540020305B0020012300934E
:10D10000964A974B019505210520FEF749FA954B64
:10D110001B78002B40F09580934B94491A6805A822
:10D1200000F028FA4FF000094FF00F0A8C4B8DE801
:10D13000000605AA0A216320FEF732FA8C4B1D78FF
:10D1400005F07F05012D00F2A6808A4FCDF804A0DE
:10D15000002D7BD13B462B200095874A3221FEF7DC
:10D160001FFA2378D8070AD5FF230393029301956A
:10D170000097824B82483E220A21FFF7F3FD237875
:10D1800099070BD5FF2303930293002301937D4B53
:10D1900000974A220A217C48FFF7E4FDB8F1000F0E
:10D1A0000BBF0F23002300220F2201920093774A26
:10D1B000704B72210120FEF7F3F9754B1B7803B316
:10D1C000337C744A002B15BF00270F274FF00F0840
:10D1D0004FF00008674B362101208DE88001FEF7F3
:10D1E000DFF9644B6C4A422101208DE88001FEF793
:10D1F000D7F98DE880015F4B684A4E210120FEF788
:10D20000CFF92378377E03F07F03032B00F2A3804E
:10D21000DFE803F0819B9D9F012300930195504B14
:10D220005F4A0F2170E70123009301954C4B5D4A43
:10D23000192169E7012300930195494B5A4A23219B
:10D2400062E75A4905A800F0C8F96BE74FF0010AF8
:10D250003B46CDF800A0564A32212B20FEF7A0F91C
:10D260002378DB070BD5FF230293CDF80CA08DE8C4
:10D270008002504B42483E220A21FFF773FD23787B
:10D2800098078BD501230393FF2302930023019377
:10D290000097494B7DE72378D9070CD5FF230393EB
:10D2A0000293344B0093CDF80490344B344832222F
:10D2B0000A21FFF757FD23789B070CD5FF23039323
:10D2C0000293002301932B4B00933E222D4B2E48BB
:10D2D0000A21FFF747FD2378D8070DD501230393D3
:10D2E000FF23029300230193224B00934E22314BE4
:10D2F00023480A21FFF736FD237899077FF54EAFC3
:10D3000001230393FF23029300230193194B0093FE
:10D310005A22294B3EE7294905A800F05EF9002F63
:10D3200015BF00230F230F2200220192009305AAAC
:10D33000104B72212320FEF733F9012D347F5CD08E
:10D3400048D3022D5BD01E4945E01E49E4E71E4943
:10D35000E2E71E49E0E71E49DEE700BF1D0C0108B9
:10D360001C000020904A002070460020230C010879
:10D37000B96000200C0000202C0C0108E0560020B1
:10D38000300C010808590020360C0108380C01083F
:10D39000D06000203D0C01083F0C0108410C010841
:10D3A000200C0108FD08010802090108280C0108E9
:10D3B000320C0108445C00206C5E0020430C010824
:10D3C000790C01084A0C0108510C0108570C01089E
:10D3D0005E0C01080B4905A800F0FFF8002C15BFF2
:10D3E00000230F230F2200220192009305AA064B6F
:10D3F00072215220FEF7D4F804E50449EBE7044912
:10D40000E9E700BF640C01080C0000206B0C010868
:10D41000720C0108014B1868704700BF24000020FF
:10D4200070B50D4E0D4CA41BA4100025A54209D1CA
:10D430000B4E0C4C01F014F8A41BA4100025A542BF
:10D4400005D170BD56F8253098470135EEE756F8FE
:10D45000253098470135F2E7200D0108200D01081D
:10D46000200D0108240D010810B501390244904235
:10D4700001D1002010BD10F8013B11F8014FA3426B
:10D48000F5D0181B10BD10B5431E0A44914200D1BF
:10D4900010BD11F8014B03F8014FF7E702440346B2
:10D4A000934200D1704703F8011BF9E770B50E46AF
:10D4B000054618B183690BB900F04AFAAB69AC684C
:10D4C00013B9284600F044FA234B9C4217D16C68EC
:10D4D000A3891B071DD52369DBB1013EA36816F89C
:10D4E000011F013BA360E9B9002B2EDA22460A2175
:10D4F000284600F07BF8013011D00A2070BD174B90
:10D500009C4201D1AC68E3E7154B9C4208BFEC6834
:10D51000DEE72146284600F0BBF80028DDD04FF0BA
:10D52000FF3070BD002B04DAA269934206DB0A29A2
:10D5300004D023685A1C22601970CFE7224628467F
:10D5400000F054F80130C9D1E9E723680A205A1CD9
:10D550002260187070BD00BFA40C0108C40C010843
:10D56000840C0108024B01461868FFF79FBF00BFFB
:10D57000240000200EB400B59CB04FF402711DAB26
:10D58000ADF81410029006906FF000410A48049123
:10D5900007914FF6FF7153F8042BADF81610006891
:10D5A000019302A900F0CAFB029B00221A701CB072
:10D5B0005DF804EB03B070472400002010B502466C
:10D5C000134601321C78002CFAD1013B11F8012BD3
:10D5D00003F8012F002AF9D110BD034611F8012BE1
:10D5E00003F8012B002AF9D170470000F8B50E4668
:10D5F0001446054618B183690BB900F0A9F9214B0F
:10D600009C422AD16C68A369A360A3891A072ED50E
:10D61000236963B323692068C01A6369F6B298422C
:10D62000374604DB2146284600F028F928BBA368CA
:10D63000013BA36023685A1C22601E70636901309D
:10D64000984204D0A389DB0719D50A2E17D12146A9
:10D65000284600F013F990B10FE00B4B9C4201D12A
:10D66000AC68D0E7094B9C4208BFEC68CBE7214689
:10D67000284600F00DF80028CCD04FF0FF37384690
:10D68000F8BD00BFA40C0108C40C0108840C0108FB
:10D69000324B70B51D6806460C4625B1AB6913B90F
:10D6A000284600F055F92E4B9C420FD16C68B4F916
:10D6B0000C309AB215072CD4D00611D4092232604E
:10D6C00043F04003A3814FF0FF3070BD254B9C42D7
:10D6D00001D1AC68EBE7244B9C4208BFEC68E6E75D
:10D6E000510712D5616B41B104F14403994202D054
:10D6F000304600F01BFA00236363A38923F0240360
:10D70000A3810023636023692360A38943F0080396
:10D71000A38123694BB9A38903F42073B3F5007F78
:10D7200003D02146304600F0C1F9A28912F001036E
:10D730000CD00023A36063695B42A361236953B9E2
:10D74000B4F90C3013F08000BAD170BD920758BF05
:10D750006369A360F2E70020F7E700BF2400002020
:10D76000A40C0108C40C0108840C01088A892DE965
:10D77000F041054610070C465AD44B68002B05DCD7
:10D780000B6C002B02DC0020BDE8F081E66A002E65
:10D79000F9D0002312F480522F682B6033D0606DD3
:10D7A000A3895A0705D56368C01A636B0BB1236C54
:10D7B000C01A00230246E66A216A2846B047431C85
:10D7C000A38906D129681D294BD82B4ACA40D60700
:10D7D00047D500226260D9042269226004D5421C28
:10D7E00001D12B6803B96065616B2F600029CAD035
:10D7F00004F14403994202D0284600F097F9002032
:10D800006063BDE8F081216A01232846B047411CCE
:10D81000C6D12B68002BC3D01D2B01D0162B01D1F4
:10D820002F60B0E7A38943F04003A381BDE8F081F6
:10D830000F69002FA7D093070E6808BF4B690F60D0
:10D8400018BF0023A6EB07088B60B8F1000F9ADD24
:10D8500043463A46216AA66A2846B047002807DCB4
:10D86000A38943F04003A3814FF0FF30BDE8F0816E
:10D870000744A8EB0008E8E70100402038B50B6931
:10D8800005460C46DBB118B183690BB900F060F8AE
:10D890000C4B9C4209D16C68B4F90C307BB1214629
:10D8A0002846BDE83840FFF761BF074B9C4201D1D5
:10D8B000AC68F1E7054B9C4208BFEC68ECE7002040
:10D8C00038BD00BFA40C0108C40C0108840C010879
:10D8D000014900F0A9B800BF7DD80008002310B5A9
:10D8E000044603604360836081814366C2810361B3
:10D8F00043618361194608225C30FFF7CFFD054B79
:10D900006362054BA362054BE362054B246223630C
